{
  "contractName": "DelayedClaimable",
  "abi": [
    {
      "constant": true,
      "inputs": [],
      "name": "owner",
      "outputs": [
        {
          "name": "",
          "type": "address"
        }
      ],
      "payable": false,
      "stateMutability": "view",
      "type": "function"
    },
    {
      "constant": true,
      "inputs": [],
      "name": "start",
      "outputs": [
        {
          "name": "",
          "type": "uint256"
        }
      ],
      "payable": false,
      "stateMutability": "view",
      "type": "function"
    },
    {
      "constant": true,
      "inputs": [],
      "name": "pendingOwner",
      "outputs": [
        {
          "name": "",
          "type": "address"
        }
      ],
      "payable": false,
      "stateMutability": "view",
      "type": "function"
    },
    {
      "constant": true,
      "inputs": [],
      "name": "end",
      "outputs": [
        {
          "name": "",
          "type": "uint256"
        }
      ],
      "payable": false,
      "stateMutability": "view",
      "type": "function"
    },
    {
      "constant": false,
      "inputs": [
        {
          "name": "newOwner",
          "type": "address"
        }
      ],
      "name": "transferOwnership",
      "outputs": [],
      "payable": false,
      "stateMutability": "nonpayable",
      "type": "function"
    },
    {
      "anonymous": false,
      "inputs": [
        {
          "indexed": true,
          "name": "previousOwner",
          "type": "address"
        },
        {
          "indexed": true,
          "name": "newOwner",
          "type": "address"
        }
      ],
      "name": "OwnershipTransferred",
      "type": "event"
    },
    {
      "constant": false,
      "inputs": [
        {
          "name": "_start",
          "type": "uint256"
        },
        {
          "name": "_end",
          "type": "uint256"
        }
      ],
      "name": "setLimits",
      "outputs": [],
      "payable": false,
      "stateMutability": "nonpayable",
      "type": "function"
    },
    {
      "constant": false,
      "inputs": [],
      "name": "claimOwnership",
      "outputs": [],
      "payable": false,
      "stateMutability": "nonpayable",
      "type": "function"
    }
  ],
  "bytecode": "0x6080604052336000806101000a81548173ffffffffffffffffffffffffffffffffffffffff021916908373ffffffffffffffffffffffffffffffffffffffff160217905550610581806100536000396000f300608060405260043610610083576000357c0100000000000000000000000000000000000000000000000000000000900463ffffffff1680634e71e0c8146100885780638da5cb5b1461009f578063be9a6555146100f6578063c4590d3f14610121578063e30c397814610158578063efbe1c1c146101af578063f2fde38b146101da575b600080fd5b34801561009457600080fd5b5061009d61021d565b005b3480156100ab57600080fd5b506100b46103e3565b604051808273ffffffffffffffffffffffffffffffffffffffff1673ffffffffffffffffffffffffffffffffffffffff16815260200191505060405180910390f35b34801561010257600080fd5b5061010b610408565b6040518082815260200191505060405180910390f35b34801561012d57600080fd5b50610156600480360381019080803590602001909291908035906020019092919050505061040e565b005b34801561016457600080fd5b5061016d61048a565b604051808273ffffffffffffffffffffffffffffffffffffffff1673ffffffffffffffffffffffffffffffffffffffff16815260200191505060405180910390f35b3480156101bb57600080fd5b506101c46104b0565b6040518082815260200191505060405180910390f35b3480156101e657600080fd5b5061021b600480360381019080803573ffffffffffffffffffffffffffffffffffffffff1690602001909291905050506104b6565b005b600160009054906101000a900473ffffffffffffffffffffffffffffffffffffffff1673ffffffffffffffffffffffffffffffffffffffff163373ffffffffffffffffffffffffffffffffffffffff1614151561027957600080fd5b600254431115801561028d57506003544310155b151561029857600080fd5b600160009054906101000a900473ffffffffffffffffffffffffffffffffffffffff1673ffffffffffffffffffffffffffffffffffffffff166000809054906101000a900473ffffffffffffffffffffffffffffffffffffffff1673ffffffffffffffffffffffffffffffffffffffff167f8be0079c531659141344cd1fd0a4f28419497f9722a3daafe3b4186f6b6457e060405160405180910390a3600160009054906101000a900473ffffffffffffffffffffffffffffffffffffffff166000806101000a81548173ffffffffffffffffffffffffffffffffffffffff021916908373ffffffffffffffffffffffffffffffffffffffff1602179055506000600160006101000a81548173ffffffffffffffffffffffffffffffffffffffff021916908373ffffffffffffffffffffffffffffffffffffffff1602179055506000600281905550565b6000809054906101000a900473ffffffffffffffffffffffffffffffffffffffff1681565b60035481565b6000809054906101000a900473ffffffffffffffffffffffffffffffffffffffff1673ffffffffffffffffffffffffffffffffffffffff163373ffffffffffffffffffffffffffffffffffffffff1614151561046957600080fd5b80821115151561047857600080fd5b80600281905550816003819055505050565b600160009054906101000a900473ffffffffffffffffffffffffffffffffffffffff1681565b60025481565b6000809054906101000a900473ffffffffffffffffffffffffffffffffffffffff1673ffffffffffffffffffffffffffffffffffffffff163373ffffffffffffffffffffffffffffffffffffffff1614151561051157600080fd5b80600160006101000a81548173ffffffffffffffffffffffffffffffffffffffff021916908373ffffffffffffffffffffffffffffffffffffffff160217905550505600a165627a7a72305820ede5cd5bc0a9d744693e13783e1e30bcc31bc79f6a6e212ae04d50adf9221da20029",
  "source": "pragma solidity ^0.4.23;\r\n\r\nimport \"./Claimable.sol\";\r\n\r\n\r\n/**\r\n * @title DelayedClaimable\r\n * @dev Extension for the Claimable contract, where the ownership needs to be claimed before/after\r\n * a certain block number.\r\n */\r\ncontract DelayedClaimable is Claimable {\r\n\r\n  uint256 public end;\r\n  uint256 public start;\r\n\r\n  /**\r\n   * @dev Used to specify the time period during which a pending\r\n   * owner can claim ownership.\r\n   * @param _start The earliest time ownership can be claimed.\r\n   * @param _end The latest time ownership can be claimed.\r\n   */\r\n  function setLimits(uint256 _start, uint256 _end) onlyOwner public {\r\n    require(_start <= _end);\r\n    end = _end;\r\n    start = _start;\r\n  }\r\n\r\n  /**\r\n   * @dev Allows the pendingOwner address to finalize the transfer, as long as it is called within\r\n   * the specified start and end time.\r\n   */\r\n  function claimOwnership() onlyPendingOwner public {\r\n    require((block.number <= end) && (block.number >= start));\r\n    emit OwnershipTransferred(owner, pendingOwner);\r\n    owner = pendingOwner;\r\n    pendingOwner = address(0);\r\n    end = 0;\r\n  }\r\n\r\n}\r\n",
  "sourcePath": "C:\\Users\\Adil\\Code\\webpack\\contracts\\zeppelin-solidity\\contracts\\ownership\\DelayedClaimable.sol",
  "compiler": {
    "name": "solc",
    "version": "0.4.23+commit.124ca40d.Emscripten.clang"
  },
  "schemaVersion": "2.0.0",
  "updatedAt": "2018-08-15T06:44:50.913Z"
}