{
  "contractName": "RBAC",
  "abi": [
    {
      "anonymous": false,
      "inputs": [
        {
          "indexed": false,
          "name": "addr",
          "type": "address"
        },
        {
          "indexed": false,
          "name": "roleName",
          "type": "string"
        }
      ],
      "name": "RoleAdded",
      "type": "event"
    },
    {
      "anonymous": false,
      "inputs": [
        {
          "indexed": false,
          "name": "addr",
          "type": "address"
        },
        {
          "indexed": false,
          "name": "roleName",
          "type": "string"
        }
      ],
      "name": "RoleRemoved",
      "type": "event"
    },
    {
      "constant": true,
      "inputs": [
        {
          "name": "addr",
          "type": "address"
        },
        {
          "name": "roleName",
          "type": "string"
        }
      ],
      "name": "checkRole",
      "outputs": [],
      "payable": false,
      "stateMutability": "view",
      "type": "function"
    },
    {
      "constant": true,
      "inputs": [
        {
          "name": "addr",
          "type": "address"
        },
        {
          "name": "roleName",
          "type": "string"
        }
      ],
      "name": "hasRole",
      "outputs": [
        {
          "name": "",
          "type": "bool"
        }
      ],
      "payable": false,
      "stateMutability": "view",
      "type": "function"
    }
  ],
  "bytecode": "0x608060405234801561001057600080fd5b50610321806100206000396000f30060806040526004361061004c576000357c0100000000000000000000000000000000000000000000000000000000900463ffffffff1680630988ca8c14610051578063217fe6c6146100da575b600080fd5b34801561005d57600080fd5b506100d8600480360381019080803573ffffffffffffffffffffffffffffffffffffffff169060200190929190803590602001908201803590602001908080601f016020809104026020016040519081016040528093929190818152602001838380828437820191505050505050919291929050505061017b565b005b3480156100e657600080fd5b50610161600480360381019080803573ffffffffffffffffffffffffffffffffffffffff169060200190929190803590602001908201803590602001908080601f01602080910402602001604051908101604052809392919081815260200183838082843782019150505050505091929192905050506101fc565b604051808215151515815260200191505060405180910390f35b6101f8826000836040518082805190602001908083835b6020831015156101b75780518252602082019150602081019050602083039250610192565b6001836020036101000a038019825116818451168082178552505050505050905001915050908152602001604051809103902061028390919063ffffffff16565b5050565b600061027b836000846040518082805190602001908083835b60208310151561023a5780518252602082019150602081019050602083039250610215565b6001836020036101000a038019825116818451168082178552505050505050905001915050908152602001604051809103902061029c90919063ffffffff16565b905092915050565b61028d828261029c565b151561029857600080fd5b5050565b60008260000160008373ffffffffffffffffffffffffffffffffffffffff1673ffffffffffffffffffffffffffffffffffffffff16815260200190815260200160002060009054906101000a900460ff169050929150505600a165627a7a723058202c9523862f20c9aebe172dce1212d263886ea0ed1bebae236b56fa27fa1be5800029",
  "source": "pragma solidity ^0.4.23;\r\n\r\nimport \"./Roles.sol\";\r\n\r\n\r\n/**\r\n * @title RBAC (Role-Based Access Control)\r\n * @author Matt Condon (@Shrugs)\r\n * @dev Stores and provides setters and getters for roles and addresses.\r\n * @dev Supports unlimited numbers of roles and addresses.\r\n * @dev See //contracts/mocks/RBACMock.sol for an example of usage.\r\n * This RBAC method uses strings to key roles. It may be beneficial\r\n *  for you to write your own implementation of this interface using Enums or similar.\r\n * It's also recommended that you define constants in the contract, like ROLE_ADMIN below,\r\n *  to avoid typos.\r\n */\r\ncontract RBAC {\r\n  using Roles for Roles.Role;\r\n\r\n  mapping (string => Roles.Role) private roles;\r\n\r\n  event RoleAdded(address addr, string roleName);\r\n  event RoleRemoved(address addr, string roleName);\r\n\r\n  /**\r\n   * @dev reverts if addr does not have role\r\n   * @param addr address\r\n   * @param roleName the name of the role\r\n   * // reverts\r\n   */\r\n  function checkRole(address addr, string roleName)\r\n    view\r\n    public\r\n  {\r\n    roles[roleName].check(addr);\r\n  }\r\n\r\n  /**\r\n   * @dev determine if addr has role\r\n   * @param addr address\r\n   * @param roleName the name of the role\r\n   * @return bool\r\n   */\r\n  function hasRole(address addr, string roleName)\r\n    view\r\n    public\r\n    returns (bool)\r\n  {\r\n    return roles[roleName].has(addr);\r\n  }\r\n\r\n  /**\r\n   * @dev add a role to an address\r\n   * @param addr address\r\n   * @param roleName the name of the role\r\n   */\r\n  function addRole(address addr, string roleName)\r\n    internal\r\n  {\r\n    roles[roleName].add(addr);\r\n    emit RoleAdded(addr, roleName);\r\n  }\r\n\r\n  /**\r\n   * @dev remove a role from an address\r\n   * @param addr address\r\n   * @param roleName the name of the role\r\n   */\r\n  function removeRole(address addr, string roleName)\r\n    internal\r\n  {\r\n    roles[roleName].remove(addr);\r\n    emit RoleRemoved(addr, roleName);\r\n  }\r\n\r\n  /**\r\n   * @dev modifier to scope access to a single role (uses msg.sender as addr)\r\n   * @param roleName the name of the role\r\n   * // reverts\r\n   */\r\n  modifier onlyRole(string roleName)\r\n  {\r\n    checkRole(msg.sender, roleName);\r\n    _;\r\n  }\r\n\r\n  /**\r\n   * @dev modifier to scope access to a set of roles (uses msg.sender as addr)\r\n   * @param roleNames the names of the roles to scope access to\r\n   * // reverts\r\n   *\r\n   * @TODO - when solidity supports dynamic arrays as arguments to modifiers, provide this\r\n   *  see: https://github.com/ethereum/solidity/issues/2467\r\n   */\r\n  // modifier onlyRoles(string[] roleNames) {\r\n  //     bool hasAnyRole = false;\r\n  //     for (uint8 i = 0; i < roleNames.length; i++) {\r\n  //         if (hasRole(msg.sender, roleNames[i])) {\r\n  //             hasAnyRole = true;\r\n  //             break;\r\n  //         }\r\n  //     }\r\n\r\n  //     require(hasAnyRole);\r\n\r\n  //     _;\r\n  // }\r\n}\r\n",
  "sourcePath": "C:\\Users\\Adil\\Code\\webpack\\contracts\\zeppelin-solidity\\contracts\\ownership\\rbac\\RBAC.sol",
  "compiler": {
    "name": "solc",
    "version": "0.4.23+commit.124ca40d.Emscripten.clang"
  },
  "schemaVersion": "2.0.0",
  "updatedAt": "2018-08-15T06:44:50.915Z"
}